{"abi":[{"type":"constructor","inputs":[{"name":"_premiumPerMonth","type":"uint256","internalType":"uint256"}],"stateMutability":"nonpayable"},{"type":"function","name":"admin","inputs":[],"outputs":[{"name":"","type":"address","internalType":"address"}],"stateMutability":"view"},{"type":"function","name":"createPolicy","inputs":[{"name":"_policyId","type":"bytes32","internalType":"bytes32"}],"outputs":[],"stateMutability":"nonpayable"},{"type":"function","name":"payPremium","inputs":[{"name":"_policyId","type":"bytes32","internalType":"bytes32"}],"outputs":[],"stateMutability":"payable"},{"type":"function","name":"policies","inputs":[{"name":"","type":"bytes32","internalType":"bytes32"}],"outputs":[{"name":"policyHolder","type":"address","internalType":"address"},{"name":"startTime","type":"uint256","internalType":"uint256"},{"name":"isActive","type":"bool","internalType":"bool"},{"name":"totalPaid","type":"uint256","internalType":"uint256"}],"stateMutability":"view"},{"type":"function","name":"premiumPerMonth","inputs":[],"outputs":[{"name":"","type":"uint256","internalType":"uint256"}],"stateMutability":"view"},{"type":"event","name":"PolicyCreated","inputs":[{"name":"policyId","type":"bytes32","indexed":true,"internalType":"bytes32"},{"name":"policyHolder","type":"address","indexed":true,"internalType":"address"}],"anonymous":false},{"type":"event","name":"PolicyExpired","inputs":[{"name":"policyId","type":"bytes32","indexed":true,"internalType":"bytes32"}],"anonymous":false},{"type":"event","name":"PremiumPaid","inputs":[{"name":"policyId","type":"bytes32","indexed":true,"internalType":"bytes32"},{"name":"amount","type":"uint256","indexed":false,"internalType":"uint256"}],"anonymous":false}],"bytecode":{"object":"0x6080604052348015600e575f5ffd5b50604051610aa6380380610aa68339818101604052810190602e919060ab565b335f5f6101000a81548173ffffffffffffffffffffffffffffffffffffffff021916908373ffffffffffffffffffffffffffffffffffffffff160217905550806001819055505060d1565b5f5ffd5b5f819050919050565b608d81607d565b81146096575f5ffd5b50565b5f8151905060a5816086565b92915050565b5f6020828403121560bd5760bc6079565b5b5f60c8848285016099565b91505092915050565b6109c8806100de5f395ff3fe608060405260043610610049575f3560e01c80632ec942251461004d5780634c14ccc214610077578063d8e2d2ba1461009f578063ddbfd8ef146100bb578063f851a440146100fa575b5f5ffd5b348015610058575f5ffd5b50610061610124565b60405161006e9190610581565b60405180910390f35b348015610082575f5ffd5b5061009d600480360381019061009891906105d1565b61012a565b005b6100b960048036038101906100b491906105d1565b6102d6565b005b3480156100c6575f5ffd5b506100e160048036038101906100dc91906105d1565b6104ee565b6040516100f19493929190610655565b60405180910390f35b348015610105575f5ffd5b5061010e610545565b60405161011b9190610698565b60405180910390f35b60015481565b5f73ffffffffffffffffffffffffffffffffffffffff1660025f8381526020019081526020015f205f015f9054906101000a900473ffffffffffffffffffffffffffffffffffffffff1673ffffffffffffffffffffffffffffffffffffffff16146101ca576040517f08c379a00000000000000000000000000000000000000000000000000000000081526004016101c19061070b565b60405180910390fd5b60405180608001604052803373ffffffffffffffffffffffffffffffffffffffff1681526020014281526020016001151581526020015f81525060025f8381526020019081526020015f205f820151815f015f6101000a81548173ffffffffffffffffffffffffffffffffffffffff021916908373ffffffffffffffffffffffffffffffffffffffff160217905550602082015181600101556040820151816002015f6101000a81548160ff021916908315150217905550606082015181600301559050503373ffffffffffffffffffffffffffffffffffffffff16817fe2914980516df94c6fce399d4a7570a14c9d6b2560a5c29343fd06aba98ed80c60405160405180910390a350565b5f60025f8381526020019081526020015f209050806002015f9054906101000a900460ff1661033a576040517f08c379a000000000000000000000000000000000000000000000000000000000815260040161033190610773565b60405180910390fd5b3373ffffffffffffffffffffffffffffffffffffffff16815f015f9054906101000a900473ffffffffffffffffffffffffffffffffffffffff1673ffffffffffffffffffffffffffffffffffffffff16146103ca576040517f08c379a00000000000000000000000000000000000000000000000000000000081526004016103c1906107db565b60405180910390fd5b5f62278d008260010154426103df9190610826565b6103e99190610886565b90505f600154826103fa91906108b6565b90508034101561043f576040517f08c379a000000000000000000000000000000000000000000000000000000000815260040161043690610941565b60405180910390fd5b34836003015f828254610452919061095f565b9250508190555060038211156104af575f836002015f6101000a81548160ff021916908315150217905550837fb42943f28e20e505899f2402abb3b329c050aebd77ccf1cbb4a6dd5957f4d98f60405160405180910390a26104e8565b837f65da5716839a02a161682014f1bc62f5be99b76561b3600e0a5fee926807e273346040516104df9190610581565b60405180910390a25b50505050565b6002602052805f5260405f205f91509050805f015f9054906101000a900473ffffffffffffffffffffffffffffffffffffffff1690806001015490806002015f9054906101000a900460ff16908060030154905084565b5f5f9054906101000a900473ffffffffffffffffffffffffffffffffffffffff1681565b5f819050919050565b61057b81610569565b82525050565b5f6020820190506105945f830184610572565b92915050565b5f5ffd5b5f819050919050565b6105b08161059e565b81146105ba575f5ffd5b50565b5f813590506105cb816105a7565b92915050565b5f602082840312156105e6576105e561059a565b5b5f6105f3848285016105bd565b91505092915050565b5f73ffffffffffffffffffffffffffffffffffffffff82169050919050565b5f610625826105fc565b9050919050565b6106358161061b565b82525050565b5f8115159050919050565b61064f8161063b565b82525050565b5f6080820190506106685f83018761062c565b6106756020830186610572565b6106826040830185610646565b61068f6060830184610572565b95945050505050565b5f6020820190506106ab5f83018461062c565b92915050565b5f82825260208201905092915050565b7f506f6c69637920616c72656164792065786973747300000000000000000000005f82015250565b5f6106f56015836106b1565b9150610700826106c1565b602082019050919050565b5f6020820190508181035f830152610722816106e9565b9050919050565b7f506f6c69637920697320696e61637469766500000000000000000000000000005f82015250565b5f61075d6012836106b1565b915061076882610729565b602082019050919050565b5f6020820190508181035f83015261078a81610751565b9050919050565b7f4e6f7420706f6c696379206f776e6572000000000000000000000000000000005f82015250565b5f6107c56010836106b1565b91506107d082610791565b602082019050919050565b5f6020820190508181035f8301526107f2816107b9565b9050919050565b7f4e487b71000000000000000000000000000000000000000000000000000000005f52601160045260245ffd5b5f61083082610569565b915061083b83610569565b9250828203905081811115610853576108526107f9565b5b92915050565b7f4e487b71000000000000000000000000000000000000000000000000000000005f52601260045260245ffd5b5f61089082610569565b915061089b83610569565b9250826108ab576108aa610859565b5b828204905092915050565b5f6108c082610569565b91506108cb83610569565b92508282026108d981610569565b915082820484148315176108f0576108ef6107f9565b5b5092915050565b7f496e73756666696369656e74207061796d656e740000000000000000000000005f82015250565b5f61092b6014836106b1565b9150610936826108f7565b602082019050919050565b5f6020820190508181035f8301526109588161091f565b9050919050565b5f61096982610569565b915061097483610569565b925082820190508082111561098c5761098b6107f9565b5b9291505056fea2646970667358221220d7e68fa53189c5a7a8e3456333be714dc40b608084eee9c0ffed2de641e1fbf364736f6c634300081c0033","linkReferences":{}},"methodIdentifiers":{"admin()":"f851a440","createPolicy(bytes32)":"4c14ccc2","payPremium(bytes32)":"d8e2d2ba","policies(bytes32)":"ddbfd8ef","premiumPerMonth()":"2ec94225"},"id":0}