{
    "contractName": "ClaimVerification",
    "abi": [
        {
            "inputs": [
                {
                    "internalType": "address",
                    "name": "_eventListener",
                    "type": "address"
                }
            ],
            "stateMutability": "nonpayable",
            "type": "constructor"
        },
        {
            "anonymous": false,
            "inputs": [
                {
                    "indexed": true,
                    "internalType": "bytes32",
                    "name": "claimId",
                    "type": "bytes32"
                },
                {
                    "indexed": true,
                    "internalType": "address",
                    "name": "claimant",
                    "type": "address"
                },
                {
                    "indexed": false,
                    "internalType": "uint256",
                    "name": "amount",
                    "type": "uint256"
                }
            ],
            "name": "ClaimPaid",
            "type": "event"
        },
        {
            "anonymous": false,
            "inputs": [
                {
                    "indexed": true,
                    "internalType": "bytes32",
                    "name": "claimId",
                    "type": "bytes32"
                },
                {
                    "indexed": true,
                    "internalType": "address",
                    "name": "claimant",
                    "type": "address"
                },
                {
                    "indexed": false,
                    "internalType": "uint256",
                    "name": "amount",
                    "type": "uint256"
                }
            ],
            "name": "ClaimSubmitted",
            "type": "event"
        },
        {
            "anonymous": false,
            "inputs": [
                {
                    "indexed": true,
                    "internalType": "bytes32",
                    "name": "claimId",
                    "type": "bytes32"
                }
            ],
            "name": "ClaimVerified",
            "type": "event"
        },
        {
            "inputs": [],
            "name": "admin",
            "outputs": [
                {
                    "internalType": "address",
                    "name": "",
                    "type": "address"
                }
            ],
            "stateMutability": "view",
            "type": "function"
        },
        {
            "inputs": [
                {
                    "internalType": "bytes32",
                    "name": "",
                    "type": "bytes32"
                }
            ],
            "name": "claims",
            "outputs": [
                {
                    "internalType": "bytes32",
                    "name": "claimId",
                    "type": "bytes32"
                },
                {
                    "internalType": "address",
                    "name": "claimant",
                    "type": "address"
                },
                {
                    "internalType": "uint256",
                    "name": "amount",
                    "type": "uint256"
                },
                {
                    "internalType": "bool",
                    "name": "verified",
                    "type": "bool"
                },
                {
                    "internalType": "bool",
                    "name": "paid",
                    "type": "bool"
                }
            ],
            "stateMutability": "view",
            "type": "function"
        },
        {
            "inputs": [],
            "name": "eventListener",
            "outputs": [
                {
                    "internalType": "contract EventListener",
                    "name": "",
                    "type": "address"
                }
            ],
            "stateMutability": "view",
            "type": "function"
        },
        {
            "inputs": [
                {
                    "internalType": "bytes32",
                    "name": "_claimId",
                    "type": "bytes32"
                },
                {
                    "internalType": "address",
                    "name": "payoutManager",
                    "type": "address"
                }
            ],
            "name": "payClaim",
            "outputs": [],
            "stateMutability": "nonpayable",
            "type": "function"
        },
        {
            "inputs": [
                {
                    "internalType": "bytes32",
                    "name": "_claimId",
                    "type": "bytes32"
                },
                {
                    "internalType": "uint256",
                    "name": "_amount",
                    "type": "uint256"
                }
            ],
            "name": "submitClaim",
            "outputs": [],
            "stateMutability": "nonpayable",
            "type": "function"
        },
        {
            "inputs": [
                {
                    "internalType": "bytes32",
                    "name": "_claimId",
                    "type": "bytes32"
                }
            ],
            "name": "verifyClaim",
            "outputs": [],
            "stateMutability": "nonpayable",
            "type": "function"
        }
    ],
    "bytecode": "608034607c57601f61072b38819003918201601f19168301916001600160401b03831184841017608057808492602094604052833981010312607c57516001600160a01b03811690819003607c575f80546001600160a01b0319908116929092179055600180549091163317905560405161069690816100958239f35b5f80fd5b634e487b7160e01b5f52604160045260245ffdfe6080806040526004361015610012575f80fd5b5f905f3560e01c9081632b677841146104a05750806335b73510146102d4578063994e91b614610118578063cd9217f7146100f1578063eff0f5921461008b5763f851a44014610060575f80fd5b346100885780600319360112610088576001546040516001600160a01b039091168152602090f35b80fd5b503461008857602036600319011261008857604060a091600435815260026020522060ff815491600180851b03600182015416906003600282015491015491604051948552602085015260408401528181161515606084015260081c1615156080820152f35b5034610088578060031936011261008857546040516001600160a01b039091168152602090f35b503461025c57604036600319011261025c576024356001600160a01b038116906004359082900361025c5761015860018060a01b0360015416331461060a565b805f52600260205260405f209160038301805460ff81161561029a5760081c60ff16610260576001840191600260018060a01b038454169501948554823b1561025c5760445f9283604051958694859363138f971760e21b8552600485015260248401525af1801561025157610216575b50805461ff0019166101001790555491546040519081526001600160a01b0392909216917f81eb79acc6a0ef94dfb507ea35363f86d0d190b46f4d608dc4c1d7480a7c7cbc90602090a380f35b6020919550916102475f7f81eb79acc6a0ef94dfb507ea35363f86d0d190b46f4d608dc4c1d7480a7c7cbc946105e8565b5f959150916101c9565b6040513d5f823e3d90fd5b5f80fd5b60405162461bcd60e51b815260206004820152601260248201527110db185a5b48185b1c9958591e481c185a5960721b6044820152606490fd5b60405162461bcd60e51b815260206004820152601260248201527110db185a5b481b9bdd081d995c9a599a595960721b6044820152606490fd5b3461025c57602036600319011261025c576004356102fd60018060a01b0360015416331461060a565b805f52600260205260405f20541561046457805f52600260205260ff600360405f20015416610426575f54604051632e5c340560e01b81526004810183905290602090829060249082906001600160a01b03165afa908115610251575f916103eb575b50156103a657805f526002602052600360405f2001600160ff198254161790557fbb7f69e49157b8f7bbfd20ddd9be754be60972bae5723181eca78ea390fdf8565f80a2005b60405162461bcd60e51b815260206004820152601960248201527f436c61696d20766572696669636174696f6e206661696c6564000000000000006044820152606490fd5b90506020813d60201161041e575b81610406602093836105e8565b8101031261025c5751801515810361025c5782610360565b3d91506103f9565b60405162461bcd60e51b815260206004820152601660248201527510db185a5b48185b1c9958591e481d995c9a599a595960521b6044820152606490fd5b60405162461bcd60e51b815260206004820152601460248201527310db185a5b48191bd95cc81b9bdd08195e1a5cdd60621b6044820152606490fd5b3461025c57604036600319011261025c5760043560243591815f52600260205260405f20546105af575060405160a0810181811067ffffffffffffffff82111761059b57604052818152602081013381526003604083019285845260608101935f855260808201935f8552865f52600260205260405f2092518355600183019060018060a01b039051166bffffffffffffffffffffffff60a01b825416179055516002820155019151151560ff8019845416911617825551151561ff0082549160081b169061ff0019161790556040519182527f1665e1c97806685a93c554916a5120e8af7533d54614518edcff6f400d8a7d0860203393a3005b634e487b7160e01b5f52604160045260245ffd5b62461bcd60e51b8152602060048201526014602482015273436c61696d20616c72656164792065786973747360601b6044820152606490fd5b90601f8019910116810190811067ffffffffffffffff82111761059b57604052565b1561061157565b60405162461bcd60e51b815260206004820152602160248201527f4f6e6c792061646d696e2063616e2063616c6c20746869732066756e6374696f6044820152603760f91b6064820152608490fdfea264697066735822122089726b60943a619899432d5872343f1bb7f4cb704c5797b9de2167db67e9eb8664736f6c634300081c0033",
    "sourcePath": "c:/Users/sarth/PetHouse/src/SELF_contracts/claimverification.sol",
    "compiler": {
        "name": "solc",
        "version": "0.8.28+commit.7893614a"
    },
    "functionHashes": {
        "admin()": "f851a440",
        "claims(bytes32)": "eff0f592",
        "eventListener()": "cd9217f7",
        "payClaim(bytes32,address)": "994e91b6",
        "submitClaim(bytes32,uint256)": "2b677841",
        "verifyClaim(bytes32)": "35b73510"
    },
    "gasEstimates": {
        "creation": {
            "codeDepositCost": "337200",
            "executionCost": "infinite",
            "totalCost": "infinite"
        },
        "external": {
            "admin()": "2393",
            "claims(bytes32)": "8868",
            "eventListener()": "2351",
            "payClaim(bytes32,address)": "infinite",
            "submitClaim(bytes32,uint256)": "121304",
            "verifyClaim(bytes32)": "infinite"
        }
    }
}