{
    "contractName": "EventListener",
    "abi": [
        {
            "inputs": [],
            "stateMutability": "nonpayable",
            "type": "constructor"
        },
        {
            "anonymous": false,
            "inputs": [
                {
                    "indexed": true,
                    "internalType": "bytes32",
                    "name": "eventId",
                    "type": "bytes32"
                }
            ],
            "name": "EventDetected",
            "type": "event"
        },
        {
            "anonymous": false,
            "inputs": [
                {
                    "indexed": true,
                    "internalType": "bytes32",
                    "name": "eventId",
                    "type": "bytes32"
                }
            ],
            "name": "EventVerified",
            "type": "event"
        },
        {
            "anonymous": false,
            "inputs": [
                {
                    "indexed": true,
                    "internalType": "bytes32",
                    "name": "eventId",
                    "type": "bytes32"
                },
                {
                    "indexed": true,
                    "internalType": "address",
                    "name": "user",
                    "type": "address"
                },
                {
                    "indexed": false,
                    "internalType": "uint256",
                    "name": "amount",
                    "type": "uint256"
                }
            ],
            "name": "PayoutApproved",
            "type": "event"
        },
        {
            "inputs": [],
            "name": "admin",
            "outputs": [
                {
                    "internalType": "address",
                    "name": "",
                    "type": "address"
                }
            ],
            "stateMutability": "view",
            "type": "function"
        },
        {
            "inputs": [
                {
                    "internalType": "bytes32",
                    "name": "_eventID",
                    "type": "bytes32"
                },
                {
                    "internalType": "address",
                    "name": "user",
                    "type": "address"
                },
                {
                    "internalType": "uint256",
                    "name": "amount",
                    "type": "uint256"
                }
            ],
            "name": "approvePayout",
            "outputs": [],
            "stateMutability": "nonpayable",
            "type": "function"
        },
        {
            "inputs": [
                {
                    "internalType": "bytes32",
                    "name": "_eventID",
                    "type": "bytes32"
                }
            ],
            "name": "detectEvent",
            "outputs": [],
            "stateMutability": "nonpayable",
            "type": "function"
        },
        {
            "inputs": [
                {
                    "internalType": "bytes32",
                    "name": "",
                    "type": "bytes32"
                }
            ],
            "name": "events",
            "outputs": [
                {
                    "internalType": "bytes32",
                    "name": "eventId",
                    "type": "bytes32"
                },
                {
                    "internalType": "bool",
                    "name": "verified",
                    "type": "bool"
                }
            ],
            "stateMutability": "view",
            "type": "function"
        },
        {
            "inputs": [
                {
                    "internalType": "bytes32",
                    "name": "_eventID",
                    "type": "bytes32"
                }
            ],
            "name": "isEventVerified",
            "outputs": [
                {
                    "internalType": "bool",
                    "name": "",
                    "type": "bool"
                }
            ],
            "stateMutability": "view",
            "type": "function"
        },
        {
            "inputs": [
                {
                    "internalType": "bytes32",
                    "name": "_eventID",
                    "type": "bytes32"
                }
            ],
            "name": "verifyEvent",
            "outputs": [],
            "stateMutability": "nonpayable",
            "type": "function"
        }
    ],
    "bytecode": "608080604052346026575f80546001600160a01b03191633179055610486908161002b8239f35b5f80fdfe6080806040526004361015610012575f80fd5b5f905f3560e01c9081632e5c3405146103cc5750806345b5e710146102bf57806372979592146101bd578063bfdc4a6114610184578063ed981607146100895763f851a44014610060575f80fd5b34610086578060031936011261008657546040516001600160a01b039091168152602090f35b80fd5b5034610086576020366003190112610086576004356100b260018060a01b0383541633146103fa565b80825260016020526040822054610148576040516040810181811067ffffffffffffffff8211176101345760405281815260016020820191848352838552816020526040852090518155019051151560ff801983541691161790557f13aac56c114f6b27cf57cdcda132b93f498f87cccebd252eaa7bb652ccda8b368280a280f35b634e487b7160e01b84526041600452602484fd5b60405162461bcd60e51b81526020600482015260146024820152734576656e7420616c72656164792065786973747360601b6044820152606490fd5b50346100865760203660031901126100865760408091600435815260016020522060ff6001825492015416825191825215156020820152f35b5034610086576060366003190112610086576024356001600160a01b03811690600435908290036102bb576044356101ff60018060a01b0385541633146103fa565b818452600160205260ff6001604086200154161561028157801561024b5760207ffaaa221849177da68801b518efc569c57ff619b3ceefd68c48781bb10abdeffa91604051908152a380f35b60405162461bcd60e51b815260206004820152600e60248201526d125b9d985b1a5908185b5bdd5b9d60921b6044820152606490fd5b60405162461bcd60e51b8152602060048201526012602482015271115d995b9d081b9bdd081d995c9a599a595960721b6044820152606490fd5b8280fd5b346103c85760203660031901126103c8576004356102e760018060a01b035f541633146103fa565b805f52600160205260405f20541561038e57805f52600160205260ff600160405f2001541661035057805f526001602052600160405f2001600160ff198254161790557fdf06b2399e892abeed8f31211f167a5adda49b2fc2a603ac71d6fa4269c984335f80a2005b60405162461bcd60e51b8152602060048201526016602482015275115d995b9d08185b1c9958591e481d995c9a599a595960521b6044820152606490fd5b60405162461bcd60e51b8152602060048201526012602482015271115d995b9d081b9bdd0819195d1958dd195960721b6044820152606490fd5b5f80fd5b346103c85760203660031901126103c8576020906004355f526001825260ff600160405f2001541615158152f35b1561040157565b60405162461bcd60e51b815260206004820152602160248201527f4f6e6c792061646d696e2063616e2063616c6c20746869732066756e6374696f6044820152603760f91b6064820152608490fdfea2646970667358221220e5a2dafbbb5fe3cbf69ee64955695955cbe7d02e7b1a5fa79c8ff67a351808b364736f6c634300081c0033",
    "sourcePath": "c:/Users/sarth/PetHouse/src/SELF_contracts/eventlistner.sol",
    "compiler": {
        "name": "solc",
        "version": "0.8.28+commit.7893614a"
    },
    "functionHashes": {
        "admin()": "f851a440",
        "approvePayout(bytes32,address,uint256)": "72979592",
        "detectEvent(bytes32)": "ed981607",
        "events(bytes32)": "bfdc4a61",
        "isEventVerified(bytes32)": "2e5c3405",
        "verifyEvent(bytes32)": "45b5e710"
    },
    "gasEstimates": {
        "creation": {
            "codeDepositCost": "231600",
            "executionCost": "24516",
            "totalCost": "256116"
        },
        "external": {
            "admin()": "2390",
            "approvePayout(bytes32,address,uint256)": "6416",
            "detectEvent(bytes32)": "52227",
            "events(bytes32)": "4535",
            "isEventVerified(bytes32)": "2336",
            "verifyEvent(bytes32)": "32121"
        },
        "internal": {
            "getCurrentTokenPrice()": "infinite",
            "manualVerification()": "infinite"
        }
    }
}